{
	"week2_2/Students.sol": {
		"Students": {
			"abi": [
				{
					"inputs": [
						{
							"internalType": "address",
							"name": "_teacher",
							"type": "address"
						}
					],
					"stateMutability": "nonpayable",
					"type": "constructor"
				},
				{
					"anonymous": false,
					"inputs": [
						{
							"indexed": false,
							"internalType": "address",
							"name": "teacher",
							"type": "address"
						},
						{
							"indexed": false,
							"internalType": "address",
							"name": "student",
							"type": "address"
						},
						{
							"indexed": false,
							"internalType": "uint256",
							"name": "point",
							"type": "uint256"
						}
					],
					"name": "updateRecord",
					"type": "event"
				},
				{
					"inputs": [
						{
							"internalType": "address",
							"name": "students",
							"type": "address"
						}
					],
					"name": "getScore",
					"outputs": [
						{
							"internalType": "uint256",
							"name": "",
							"type": "uint256"
						}
					],
					"stateMutability": "view",
					"type": "function"
				},
				{
					"inputs": [],
					"name": "owenr",
					"outputs": [
						{
							"internalType": "address",
							"name": "",
							"type": "address"
						}
					],
					"stateMutability": "view",
					"type": "function"
				},
				{
					"inputs": [
						{
							"internalType": "address",
							"name": "students",
							"type": "address"
						},
						{
							"internalType": "uint256",
							"name": "score",
							"type": "uint256"
						}
					],
					"name": "setScore",
					"outputs": [],
					"stateMutability": "nonpayable",
					"type": "function"
				}
			],
			"devdoc": {
				"kind": "dev",
				"methods": {},
				"version": 1
			},
			"evm": {
				"assembly": "    /* \"week2_2/Students.sol\":93:921  contract Students is Iscore {... */\n  mstore(0x40, 0x80)\n    /* \"week2_2/Students.sol\":280:344  constructor(address _teacher){... */\n  callvalue\n  dup1\n  iszero\n  tag_1\n  jumpi\n  0x00\n  dup1\n  revert\ntag_1:\n  pop\n  mload(0x40)\n  sub(codesize, bytecodeSize)\n  dup1\n  bytecodeSize\n  dup4\n  codecopy\n  dup2\n  dup2\n  add\n  0x40\n  mstore\n  dup2\n  add\n  swap1\n  tag_2\n  swap2\n  swap1\n  tag_3\n  jump\t// in\ntag_2:\n    /* \"week2_2/Students.sol\":328:336  _teacher */\n  dup1\n    /* \"week2_2/Students.sol\":320:325  owenr */\n  0x01\n  0x00\n    /* \"week2_2/Students.sol\":320:336  owenr = _teacher */\n  0x0100\n  exp\n  dup2\n  sload\n  dup2\n  0xffffffffffffffffffffffffffffffffffffffff\n  mul\n  not\n  and\n  swap1\n  dup4\n  0xffffffffffffffffffffffffffffffffffffffff\n  and\n  mul\n  or\n  swap1\n  sstore\n  pop\n    /* \"week2_2/Students.sol\":280:344  constructor(address _teacher){... */\n  pop\n    /* \"week2_2/Students.sol\":93:921  contract Students is Iscore {... */\n  jump(tag_6)\n    /* \"#utility.yul\":88:205   */\ntag_8:\n    /* \"#utility.yul\":197:198   */\n  0x00\n    /* \"#utility.yul\":194:195   */\n  dup1\n    /* \"#utility.yul\":187:199   */\n  revert\n    /* \"#utility.yul\":334:460   */\ntag_10:\n    /* \"#utility.yul\":371:378   */\n  0x00\n    /* \"#utility.yul\":411:453   */\n  0xffffffffffffffffffffffffffffffffffffffff\n    /* \"#utility.yul\":404:409   */\n  dup3\n    /* \"#utility.yul\":400:454   */\n  and\n    /* \"#utility.yul\":389:454   */\n  swap1\n  pop\n    /* \"#utility.yul\":334:460   */\n  swap2\n  swap1\n  pop\n  jump\t// out\n    /* \"#utility.yul\":466:562   */\ntag_11:\n    /* \"#utility.yul\":503:510   */\n  0x00\n    /* \"#utility.yul\":532:556   */\n  tag_20\n    /* \"#utility.yul\":550:555   */\n  dup3\n    /* \"#utility.yul\":532:556   */\n  tag_10\n  jump\t// in\ntag_20:\n    /* \"#utility.yul\":521:556   */\n  swap1\n  pop\n    /* \"#utility.yul\":466:562   */\n  swap2\n  swap1\n  pop\n  jump\t// out\n    /* \"#utility.yul\":568:690   */\ntag_12:\n    /* \"#utility.yul\":641:665   */\n  tag_22\n    /* \"#utility.yul\":659:664   */\n  dup2\n    /* \"#utility.yul\":641:665   */\n  tag_11\n  jump\t// in\ntag_22:\n    /* \"#utility.yul\":634:639   */\n  dup2\n    /* \"#utility.yul\":631:666   */\n  eq\n    /* \"#utility.yul\":621:684   */\n  tag_23\n  jumpi\n    /* \"#utility.yul\":680:681   */\n  0x00\n    /* \"#utility.yul\":677:678   */\n  dup1\n    /* \"#utility.yul\":670:682   */\n  revert\n    /* \"#utility.yul\":621:684   */\ntag_23:\n    /* \"#utility.yul\":568:690   */\n  pop\n  jump\t// out\n    /* \"#utility.yul\":696:839   */\ntag_13:\n    /* \"#utility.yul\":753:758   */\n  0x00\n    /* \"#utility.yul\":784:790   */\n  dup2\n    /* \"#utility.yul\":778:791   */\n  mload\n    /* \"#utility.yul\":769:791   */\n  swap1\n  pop\n    /* \"#utility.yul\":800:833   */\n  tag_25\n    /* \"#utility.yul\":827:832   */\n  dup2\n    /* \"#utility.yul\":800:833   */\n  tag_12\n  jump\t// in\ntag_25:\n    /* \"#utility.yul\":696:839   */\n  swap3\n  swap2\n  pop\n  pop\n  jump\t// out\n    /* \"#utility.yul\":845:1196   */\ntag_3:\n    /* \"#utility.yul\":915:921   */\n  0x00\n    /* \"#utility.yul\":964:966   */\n  0x20\n    /* \"#utility.yul\":952:961   */\n  dup3\n    /* \"#utility.yul\":943:950   */\n  dup5\n    /* \"#utility.yul\":939:962   */\n  sub\n    /* \"#utility.yul\":935:967   */\n  slt\n    /* \"#utility.yul\":932:1051   */\n  iszero\n  tag_27\n  jumpi\n    /* \"#utility.yul\":970:1049   */\n  tag_28\n  tag_8\n  jump\t// in\ntag_28:\n    /* \"#utility.yul\":932:1051   */\ntag_27:\n    /* \"#utility.yul\":1090:1091   */\n  0x00\n    /* \"#utility.yul\":1115:1179   */\n  tag_29\n    /* \"#utility.yul\":1171:1178   */\n  dup5\n    /* \"#utility.yul\":1162:1168   */\n  dup3\n    /* \"#utility.yul\":1151:1160   */\n  dup6\n    /* \"#utility.yul\":1147:1169   */\n  add\n    /* \"#utility.yul\":1115:1179   */\n  tag_13\n  jump\t// in\ntag_29:\n    /* \"#utility.yul\":1105:1179   */\n  swap2\n  pop\n    /* \"#utility.yul\":1061:1189   */\n  pop\n    /* \"#utility.yul\":845:1196   */\n  swap3\n  swap2\n  pop\n  pop\n  jump\t// out\n    /* \"week2_2/Students.sol\":93:921  contract Students is Iscore {... */\ntag_6:\n  dataSize(sub_0)\n  dup1\n  dataOffset(sub_0)\n  0x00\n  codecopy\n  0x00\n  return\nstop\n\nsub_0: assembly {\n        /* \"week2_2/Students.sol\":93:921  contract Students is Iscore {... */\n      mstore(0x40, 0x80)\n      callvalue\n      dup1\n      iszero\n      tag_1\n      jumpi\n      0x00\n      dup1\n      revert\n    tag_1:\n      pop\n      jumpi(tag_2, lt(calldatasize, 0x04))\n      shr(0xe0, calldataload(0x00))\n      dup1\n      0x0b086b26\n      eq\n      tag_3\n      jumpi\n      dup1\n      0xd47875d0\n      eq\n      tag_4\n      jumpi\n      dup1\n      0xee0fcc75\n      eq\n      tag_5\n      jumpi\n    tag_2:\n      0x00\n      dup1\n      revert\n        /* \"week2_2/Students.sol\":182:202  address public owenr */\n    tag_3:\n      tag_6\n      tag_7\n      jump\t// in\n    tag_6:\n      mload(0x40)\n      tag_8\n      swap2\n      swap1\n      tag_9\n      jump\t// in\n    tag_8:\n      mload(0x40)\n      dup1\n      swap2\n      sub\n      swap1\n      return\n        /* \"week2_2/Students.sol\":796:918  function getScore(address students) external view override returns (uint) {... */\n    tag_4:\n      tag_10\n      0x04\n      dup1\n      calldatasize\n      sub\n      dup2\n      add\n      swap1\n      tag_11\n      swap2\n      swap1\n      tag_12\n      jump\t// in\n    tag_11:\n      tag_13\n      jump\t// in\n    tag_10:\n      mload(0x40)\n      tag_14\n      swap2\n      swap1\n      tag_15\n      jump\t// in\n    tag_14:\n      mload(0x40)\n      dup1\n      swap2\n      sub\n      swap1\n      return\n        /* \"week2_2/Students.sol\":589:788  function setScore(address students, uint score) external override onlyTeacher scoreMax(score){... */\n    tag_5:\n      tag_16\n      0x04\n      dup1\n      calldatasize\n      sub\n      dup2\n      add\n      swap1\n      tag_17\n      swap2\n      swap1\n      tag_18\n      jump\t// in\n    tag_17:\n      tag_19\n      jump\t// in\n    tag_16:\n      stop\n        /* \"week2_2/Students.sol\":182:202  address public owenr */\n    tag_7:\n      0x01\n      0x00\n      swap1\n      sload\n      swap1\n      0x0100\n      exp\n      swap1\n      div\n      0xffffffffffffffffffffffffffffffffffffffff\n      and\n      dup2\n      jump\t// out\n        /* \"week2_2/Students.sol\":796:918  function getScore(address students) external view override returns (uint) {... */\n    tag_13:\n        /* \"week2_2/Students.sol\":864:868  uint */\n      0x00\n        /* \"week2_2/Students.sol\":888:900  studentScore */\n      dup1\n        /* \"week2_2/Students.sol\":888:910  studentScore[students] */\n      0x00\n        /* \"week2_2/Students.sol\":901:909  students */\n      dup4\n        /* \"week2_2/Students.sol\":888:910  studentScore[students] */\n      0xffffffffffffffffffffffffffffffffffffffff\n      and\n      0xffffffffffffffffffffffffffffffffffffffff\n      and\n      dup2\n      mstore\n      0x20\n      add\n      swap1\n      dup2\n      mstore\n      0x20\n      add\n      0x00\n      keccak256\n      sload\n        /* \"week2_2/Students.sol\":881:910  return studentScore[students] */\n      swap1\n      pop\n        /* \"week2_2/Students.sol\":796:918  function getScore(address students) external view override returns (uint) {... */\n      swap2\n      swap1\n      pop\n      jump\t// out\n        /* \"week2_2/Students.sol\":589:788  function setScore(address students, uint score) external override onlyTeacher scoreMax(score){... */\n    tag_19:\n        /* \"week2_2/Students.sol\":406:411  owenr */\n      0x01\n      0x00\n      swap1\n      sload\n      swap1\n      0x0100\n      exp\n      swap1\n      div\n      0xffffffffffffffffffffffffffffffffffffffff\n      and\n        /* \"week2_2/Students.sol\":394:411  msg.sender==owenr */\n      0xffffffffffffffffffffffffffffffffffffffff\n      and\n        /* \"week2_2/Students.sol\":394:404  msg.sender */\n      caller\n        /* \"week2_2/Students.sol\":394:411  msg.sender==owenr */\n      0xffffffffffffffffffffffffffffffffffffffff\n      and\n      eq\n        /* \"week2_2/Students.sol\":386:445  require(msg.sender==owenr,\"Only teacher can modify scores\") */\n      tag_22\n      jumpi\n      mload(0x40)\n      0x08c379a000000000000000000000000000000000000000000000000000000000\n      dup2\n      mstore\n      0x04\n      add\n      tag_23\n      swap1\n      tag_24\n      jump\t// in\n    tag_23:\n      mload(0x40)\n      dup1\n      swap2\n      sub\n      swap1\n      revert\n    tag_22:\n        /* \"week2_2/Students.sol\":676:681  score */\n      dup1\n        /* \"week2_2/Students.sol\":528:529  0 */\n      0x00\n        /* \"week2_2/Students.sol\":522:527  score */\n      dup2\n        /* \"week2_2/Students.sol\":522:529  score>0 */\n      gt\n        /* \"week2_2/Students.sol\":522:543  score>0 || score<=100 */\n      dup1\n      tag_26\n      jumpi\n      pop\n        /* \"week2_2/Students.sol\":540:543  100 */\n      0x64\n        /* \"week2_2/Students.sol\":533:538  score */\n      dup2\n        /* \"week2_2/Students.sol\":533:543  score<=100 */\n      gt\n      iszero\n        /* \"week2_2/Students.sol\":522:543  score>0 || score<=100 */\n    tag_26:\n        /* \"week2_2/Students.sol\":514:561  require(score>0 || score<=100,\"Error of score\") */\n      tag_27\n      jumpi\n      mload(0x40)\n      0x08c379a000000000000000000000000000000000000000000000000000000000\n      dup2\n      mstore\n      0x04\n      add\n      tag_28\n      swap1\n      tag_29\n      jump\t// in\n    tag_28:\n      mload(0x40)\n      dup1\n      swap2\n      sub\n      swap1\n      revert\n    tag_27:\n        /* \"week2_2/Students.sol\":720:725  score */\n      dup2\n        /* \"week2_2/Students.sol\":693:705  studentScore */\n      0x00\n        /* \"week2_2/Students.sol\":693:715  studentScore[students] */\n      dup1\n        /* \"week2_2/Students.sol\":706:714  students */\n      dup6\n        /* \"week2_2/Students.sol\":693:715  studentScore[students] */\n      0xffffffffffffffffffffffffffffffffffffffff\n      and\n      0xffffffffffffffffffffffffffffffffffffffff\n      and\n      dup2\n      mstore\n      0x20\n      add\n      swap1\n      dup2\n      mstore\n      0x20\n      add\n      0x00\n      keccak256\n        /* \"week2_2/Students.sol\":693:725  studentScore[students]  =  score */\n      dup2\n      swap1\n      sstore\n      pop\n        /* \"week2_2/Students.sol\":741:780  updateRecord(msg.sender,students,score) */\n      0xaad4bab2133657711523a439a4b13ff68e1ade233cc1f9ca07cda4cad90ad0fd\n        /* \"week2_2/Students.sol\":754:764  msg.sender */\n      caller\n        /* \"week2_2/Students.sol\":765:773  students */\n      dup5\n        /* \"week2_2/Students.sol\":774:779  score */\n      dup5\n        /* \"week2_2/Students.sol\":741:780  updateRecord(msg.sender,students,score) */\n      mload(0x40)\n      tag_31\n      swap4\n      swap3\n      swap2\n      swap1\n      tag_32\n      jump\t// in\n    tag_31:\n      mload(0x40)\n      dup1\n      swap2\n      sub\n      swap1\n      log1\n        /* \"week2_2/Students.sol\":456:457  _ */\n      pop\n        /* \"week2_2/Students.sol\":589:788  function setScore(address students, uint score) external override onlyTeacher scoreMax(score){... */\n      pop\n      pop\n      jump\t// out\n        /* \"#utility.yul\":7:133   */\n    tag_33:\n        /* \"#utility.yul\":44:51   */\n      0x00\n        /* \"#utility.yul\":84:126   */\n      0xffffffffffffffffffffffffffffffffffffffff\n        /* \"#utility.yul\":77:82   */\n      dup3\n        /* \"#utility.yul\":73:127   */\n      and\n        /* \"#utility.yul\":62:127   */\n      swap1\n      pop\n        /* \"#utility.yul\":7:133   */\n      swap2\n      swap1\n      pop\n      jump\t// out\n        /* \"#utility.yul\":139:235   */\n    tag_34:\n        /* \"#utility.yul\":176:183   */\n      0x00\n        /* \"#utility.yul\":205:229   */\n      tag_53\n        /* \"#utility.yul\":223:228   */\n      dup3\n        /* \"#utility.yul\":205:229   */\n      tag_33\n      jump\t// in\n    tag_53:\n        /* \"#utility.yul\":194:229   */\n      swap1\n      pop\n        /* \"#utility.yul\":139:235   */\n      swap2\n      swap1\n      pop\n      jump\t// out\n        /* \"#utility.yul\":241:359   */\n    tag_35:\n        /* \"#utility.yul\":328:352   */\n      tag_55\n        /* \"#utility.yul\":346:351   */\n      dup2\n        /* \"#utility.yul\":328:352   */\n      tag_34\n      jump\t// in\n    tag_55:\n        /* \"#utility.yul\":323:326   */\n      dup3\n        /* \"#utility.yul\":316:353   */\n      mstore\n        /* \"#utility.yul\":241:359   */\n      pop\n      pop\n      jump\t// out\n        /* \"#utility.yul\":365:587   */\n    tag_9:\n        /* \"#utility.yul\":458:462   */\n      0x00\n        /* \"#utility.yul\":496:498   */\n      0x20\n        /* \"#utility.yul\":485:494   */\n      dup3\n        /* \"#utility.yul\":481:499   */\n      add\n        /* \"#utility.yul\":473:499   */\n      swap1\n      pop\n        /* \"#utility.yul\":509:580   */\n      tag_57\n        /* \"#utility.yul\":577:578   */\n      0x00\n        /* \"#utility.yul\":566:575   */\n      dup4\n        /* \"#utility.yul\":562:579   */\n      add\n        /* \"#utility.yul\":553:559   */\n      dup5\n        /* \"#utility.yul\":509:580   */\n      tag_35\n      jump\t// in\n    tag_57:\n        /* \"#utility.yul\":365:587   */\n      swap3\n      swap2\n      pop\n      pop\n      jump\t// out\n        /* \"#utility.yul\":674:791   */\n    tag_37:\n        /* \"#utility.yul\":783:784   */\n      0x00\n        /* \"#utility.yul\":780:781   */\n      dup1\n        /* \"#utility.yul\":773:785   */\n      revert\n        /* \"#utility.yul\":920:1042   */\n    tag_39:\n        /* \"#utility.yul\":993:1017   */\n      tag_62\n        /* \"#utility.yul\":1011:1016   */\n      dup2\n        /* \"#utility.yul\":993:1017   */\n      tag_34\n      jump\t// in\n    tag_62:\n        /* \"#utility.yul\":986:991   */\n      dup2\n        /* \"#utility.yul\":983:1018   */\n      eq\n        /* \"#utility.yul\":973:1036   */\n      tag_63\n      jumpi\n        /* \"#utility.yul\":1032:1033   */\n      0x00\n        /* \"#utility.yul\":1029:1030   */\n      dup1\n        /* \"#utility.yul\":1022:1034   */\n      revert\n        /* \"#utility.yul\":973:1036   */\n    tag_63:\n        /* \"#utility.yul\":920:1042   */\n      pop\n      jump\t// out\n        /* \"#utility.yul\":1048:1187   */\n    tag_40:\n        /* \"#utility.yul\":1094:1099   */\n      0x00\n        /* \"#utility.yul\":1132:1138   */\n      dup2\n        /* \"#utility.yul\":1119:1139   */\n      calldataload\n        /* \"#utility.yul\":1110:1139   */\n      swap1\n      pop\n        /* \"#utility.yul\":1148:1181   */\n      tag_65\n        /* \"#utility.yul\":1175:1180   */\n      dup2\n        /* \"#utility.yul\":1148:1181   */\n      tag_39\n      jump\t// in\n    tag_65:\n        /* \"#utility.yul\":1048:1187   */\n      swap3\n      swap2\n      pop\n      pop\n      jump\t// out\n        /* \"#utility.yul\":1193:1522   */\n    tag_12:\n        /* \"#utility.yul\":1252:1258   */\n      0x00\n        /* \"#utility.yul\":1301:1303   */\n      0x20\n        /* \"#utility.yul\":1289:1298   */\n      dup3\n        /* \"#utility.yul\":1280:1287   */\n      dup5\n        /* \"#utility.yul\":1276:1299   */\n      sub\n        /* \"#utility.yul\":1272:1304   */\n      slt\n        /* \"#utility.yul\":1269:1388   */\n      iszero\n      tag_67\n      jumpi\n        /* \"#utility.yul\":1307:1386   */\n      tag_68\n      tag_37\n      jump\t// in\n    tag_68:\n        /* \"#utility.yul\":1269:1388   */\n    tag_67:\n        /* \"#utility.yul\":1427:1428   */\n      0x00\n        /* \"#utility.yul\":1452:1505   */\n      tag_69\n        /* \"#utility.yul\":1497:1504   */\n      dup5\n        /* \"#utility.yul\":1488:1494   */\n      dup3\n        /* \"#utility.yul\":1477:1486   */\n      dup6\n        /* \"#utility.yul\":1473:1495   */\n      add\n        /* \"#utility.yul\":1452:1505   */\n      tag_40\n      jump\t// in\n    tag_69:\n        /* \"#utility.yul\":1442:1505   */\n      swap2\n      pop\n        /* \"#utility.yul\":1398:1515   */\n      pop\n        /* \"#utility.yul\":1193:1522   */\n      swap3\n      swap2\n      pop\n      pop\n      jump\t// out\n        /* \"#utility.yul\":1528:1605   */\n    tag_41:\n        /* \"#utility.yul\":1565:1572   */\n      0x00\n        /* \"#utility.yul\":1594:1599   */\n      dup2\n        /* \"#utility.yul\":1583:1599   */\n      swap1\n      pop\n        /* \"#utility.yul\":1528:1605   */\n      swap2\n      swap1\n      pop\n      jump\t// out\n        /* \"#utility.yul\":1611:1729   */\n    tag_42:\n        /* \"#utility.yul\":1698:1722   */\n      tag_72\n        /* \"#utility.yul\":1716:1721   */\n      dup2\n        /* \"#utility.yul\":1698:1722   */\n      tag_41\n      jump\t// in\n    tag_72:\n        /* \"#utility.yul\":1693:1696   */\n      dup3\n        /* \"#utility.yul\":1686:1723   */\n      mstore\n        /* \"#utility.yul\":1611:1729   */\n      pop\n      pop\n      jump\t// out\n        /* \"#utility.yul\":1735:1957   */\n    tag_15:\n        /* \"#utility.yul\":1828:1832   */\n      0x00\n        /* \"#utility.yul\":1866:1868   */\n      0x20\n        /* \"#utility.yul\":1855:1864   */\n      dup3\n        /* \"#utility.yul\":1851:1869   */\n      add\n        /* \"#utility.yul\":1843:1869   */\n      swap1\n      pop\n        /* \"#utility.yul\":1879:1950   */\n      tag_74\n        /* \"#utility.yul\":1947:1948   */\n      0x00\n        /* \"#utility.yul\":1936:1945   */\n      dup4\n        /* \"#utility.yul\":1932:1949   */\n      add\n        /* \"#utility.yul\":1923:1929   */\n      dup5\n        /* \"#utility.yul\":1879:1950   */\n      tag_42\n      jump\t// in\n    tag_74:\n        /* \"#utility.yul\":1735:1957   */\n      swap3\n      swap2\n      pop\n      pop\n      jump\t// out\n        /* \"#utility.yul\":1963:2085   */\n    tag_43:\n        /* \"#utility.yul\":2036:2060   */\n      tag_76\n        /* \"#utility.yul\":2054:2059   */\n      dup2\n        /* \"#utility.yul\":2036:2060   */\n      tag_41\n      jump\t// in\n    tag_76:\n        /* \"#utility.yul\":2029:2034   */\n      dup2\n        /* \"#utility.yul\":2026:2061   */\n      eq\n        /* \"#utility.yul\":2016:2079   */\n      tag_77\n      jumpi\n        /* \"#utility.yul\":2075:2076   */\n      0x00\n        /* \"#utility.yul\":2072:2073   */\n      dup1\n        /* \"#utility.yul\":2065:2077   */\n      revert\n        /* \"#utility.yul\":2016:2079   */\n    tag_77:\n        /* \"#utility.yul\":1963:2085   */\n      pop\n      jump\t// out\n        /* \"#utility.yul\":2091:2230   */\n    tag_44:\n        /* \"#utility.yul\":2137:2142   */\n      0x00\n        /* \"#utility.yul\":2175:2181   */\n      dup2\n        /* \"#utility.yul\":2162:2182   */\n      calldataload\n        /* \"#utility.yul\":2153:2182   */\n      swap1\n      pop\n        /* \"#utility.yul\":2191:2224   */\n      tag_79\n        /* \"#utility.yul\":2218:2223   */\n      dup2\n        /* \"#utility.yul\":2191:2224   */\n      tag_43\n      jump\t// in\n    tag_79:\n        /* \"#utility.yul\":2091:2230   */\n      swap3\n      swap2\n      pop\n      pop\n      jump\t// out\n        /* \"#utility.yul\":2236:2710   */\n    tag_18:\n        /* \"#utility.yul\":2304:2310   */\n      0x00\n        /* \"#utility.yul\":2312:2318   */\n      dup1\n        /* \"#utility.yul\":2361:2363   */\n      0x40\n        /* \"#utility.yul\":2349:2358   */\n      dup4\n        /* \"#utility.yul\":2340:2347   */\n      dup6\n        /* \"#utility.yul\":2336:2359   */\n      sub\n        /* \"#utility.yul\":2332:2364   */\n      slt\n        /* \"#utility.yul\":2329:2448   */\n      iszero\n      tag_81\n      jumpi\n        /* \"#utility.yul\":2367:2446   */\n      tag_82\n      tag_37\n      jump\t// in\n    tag_82:\n        /* \"#utility.yul\":2329:2448   */\n    tag_81:\n        /* \"#utility.yul\":2487:2488   */\n      0x00\n        /* \"#utility.yul\":2512:2565   */\n      tag_83\n        /* \"#utility.yul\":2557:2564   */\n      dup6\n        /* \"#utility.yul\":2548:2554   */\n      dup3\n        /* \"#utility.yul\":2537:2546   */\n      dup7\n        /* \"#utility.yul\":2533:2555   */\n      add\n        /* \"#utility.yul\":2512:2565   */\n      tag_40\n      jump\t// in\n    tag_83:\n        /* \"#utility.yul\":2502:2565   */\n      swap3\n      pop\n        /* \"#utility.yul\":2458:2575   */\n      pop\n        /* \"#utility.yul\":2614:2616   */\n      0x20\n        /* \"#utility.yul\":2640:2693   */\n      tag_84\n        /* \"#utility.yul\":2685:2692   */\n      dup6\n        /* \"#utility.yul\":2676:2682   */\n      dup3\n        /* \"#utility.yul\":2665:2674   */\n      dup7\n        /* \"#utility.yul\":2661:2683   */\n      add\n        /* \"#utility.yul\":2640:2693   */\n      tag_44\n      jump\t// in\n    tag_84:\n        /* \"#utility.yul\":2630:2693   */\n      swap2\n      pop\n        /* \"#utility.yul\":2585:2703   */\n      pop\n        /* \"#utility.yul\":2236:2710   */\n      swap3\n      pop\n      swap3\n      swap1\n      pop\n      jump\t// out\n        /* \"#utility.yul\":2716:2885   */\n    tag_45:\n        /* \"#utility.yul\":2800:2811   */\n      0x00\n        /* \"#utility.yul\":2834:2840   */\n      dup3\n        /* \"#utility.yul\":2829:2832   */\n      dup3\n        /* \"#utility.yul\":2822:2841   */\n      mstore\n        /* \"#utility.yul\":2874:2878   */\n      0x20\n        /* \"#utility.yul\":2869:2872   */\n      dup3\n        /* \"#utility.yul\":2865:2879   */\n      add\n        /* \"#utility.yul\":2850:2879   */\n      swap1\n      pop\n        /* \"#utility.yul\":2716:2885   */\n      swap3\n      swap2\n      pop\n      pop\n      jump\t// out\n        /* \"#utility.yul\":2891:3071   */\n    tag_46:\n        /* \"#utility.yul\":3031:3063   */\n      0x4f6e6c7920746561636865722063616e206d6f646966792073636f7265730000\n        /* \"#utility.yul\":3027:3028   */\n      0x00\n        /* \"#utility.yul\":3019:3025   */\n      dup3\n        /* \"#utility.yul\":3015:3029   */\n      add\n        /* \"#utility.yul\":3008:3064   */\n      mstore\n        /* \"#utility.yul\":2891:3071   */\n      pop\n      jump\t// out\n        /* \"#utility.yul\":3077:3443   */\n    tag_47:\n        /* \"#utility.yul\":3219:3222   */\n      0x00\n        /* \"#utility.yul\":3240:3307   */\n      tag_88\n        /* \"#utility.yul\":3304:3306   */\n      0x1e\n        /* \"#utility.yul\":3299:3302   */\n      dup4\n        /* \"#utility.yul\":3240:3307   */\n      tag_45\n      jump\t// in\n    tag_88:\n        /* \"#utility.yul\":3233:3307   */\n      swap2\n      pop\n        /* \"#utility.yul\":3316:3409   */\n      tag_89\n        /* \"#utility.yul\":3405:3408   */\n      dup3\n        /* \"#utility.yul\":3316:3409   */\n      tag_46\n      jump\t// in\n    tag_89:\n        /* \"#utility.yul\":3434:3436   */\n      0x20\n        /* \"#utility.yul\":3429:3432   */\n      dup3\n        /* \"#utility.yul\":3425:3437   */\n      add\n        /* \"#utility.yul\":3418:3437   */\n      swap1\n      pop\n        /* \"#utility.yul\":3077:3443   */\n      swap2\n      swap1\n      pop\n      jump\t// out\n        /* \"#utility.yul\":3449:3868   */\n    tag_24:\n        /* \"#utility.yul\":3615:3619   */\n      0x00\n        /* \"#utility.yul\":3653:3655   */\n      0x20\n        /* \"#utility.yul\":3642:3651   */\n      dup3\n        /* \"#utility.yul\":3638:3656   */\n      add\n        /* \"#utility.yul\":3630:3656   */\n      swap1\n      pop\n        /* \"#utility.yul\":3702:3711   */\n      dup2\n        /* \"#utility.yul\":3696:3700   */\n      dup2\n        /* \"#utility.yul\":3692:3712   */\n      sub\n        /* \"#utility.yul\":3688:3689   */\n      0x00\n        /* \"#utility.yul\":3677:3686   */\n      dup4\n        /* \"#utility.yul\":3673:3690   */\n      add\n        /* \"#utility.yul\":3666:3713   */\n      mstore\n        /* \"#utility.yul\":3730:3861   */\n      tag_91\n        /* \"#utility.yul\":3856:3860   */\n      dup2\n        /* \"#utility.yul\":3730:3861   */\n      tag_47\n      jump\t// in\n    tag_91:\n        /* \"#utility.yul\":3722:3861   */\n      swap1\n      pop\n        /* \"#utility.yul\":3449:3868   */\n      swap2\n      swap1\n      pop\n      jump\t// out\n        /* \"#utility.yul\":3874:4038   */\n    tag_48:\n        /* \"#utility.yul\":4014:4030   */\n      0x4572726f72206f662073636f7265000000000000000000000000000000000000\n        /* \"#utility.yul\":4010:4011   */\n      0x00\n        /* \"#utility.yul\":4002:4008   */\n      dup3\n        /* \"#utility.yul\":3998:4012   */\n      add\n        /* \"#utility.yul\":3991:4031   */\n      mstore\n        /* \"#utility.yul\":3874:4038   */\n      pop\n      jump\t// out\n        /* \"#utility.yul\":4044:4410   */\n    tag_49:\n        /* \"#utility.yul\":4186:4189   */\n      0x00\n        /* \"#utility.yul\":4207:4274   */\n      tag_94\n        /* \"#utility.yul\":4271:4273   */\n      0x0e\n        /* \"#utility.yul\":4266:4269   */\n      dup4\n        /* \"#utility.yul\":4207:4274   */\n      tag_45\n      jump\t// in\n    tag_94:\n        /* \"#utility.yul\":4200:4274   */\n      swap2\n      pop\n        /* \"#utility.yul\":4283:4376   */\n      tag_95\n        /* \"#utility.yul\":4372:4375   */\n      dup3\n        /* \"#utility.yul\":4283:4376   */\n      tag_48\n      jump\t// in\n    tag_95:\n        /* \"#utility.yul\":4401:4403   */\n      0x20\n        /* \"#utility.yul\":4396:4399   */\n      dup3\n        /* \"#utility.yul\":4392:4404   */\n      add\n        /* \"#utility.yul\":4385:4404   */\n      swap1\n      pop\n        /* \"#utility.yul\":4044:4410   */\n      swap2\n      swap1\n      pop\n      jump\t// out\n        /* \"#utility.yul\":4416:4835   */\n    tag_29:\n        /* \"#utility.yul\":4582:4586   */\n      0x00\n        /* \"#utility.yul\":4620:4622   */\n      0x20\n        /* \"#utility.yul\":4609:4618   */\n      dup3\n        /* \"#utility.yul\":4605:4623   */\n      add\n        /* \"#utility.yul\":4597:4623   */\n      swap1\n      pop\n        /* \"#utility.yul\":4669:4678   */\n      dup2\n        /* \"#utility.yul\":4663:4667   */\n      dup2\n        /* \"#utility.yul\":4659:4679   */\n      sub\n        /* \"#utility.yul\":4655:4656   */\n      0x00\n        /* \"#utility.yul\":4644:4653   */\n      dup4\n        /* \"#utility.yul\":4640:4657   */\n      add\n        /* \"#utility.yul\":4633:4680   */\n      mstore\n        /* \"#utility.yul\":4697:4828   */\n      tag_97\n        /* \"#utility.yul\":4823:4827   */\n      dup2\n        /* \"#utility.yul\":4697:4828   */\n      tag_49\n      jump\t// in\n    tag_97:\n        /* \"#utility.yul\":4689:4828   */\n      swap1\n      pop\n        /* \"#utility.yul\":4416:4835   */\n      swap2\n      swap1\n      pop\n      jump\t// out\n        /* \"#utility.yul\":4841:5283   */\n    tag_32:\n        /* \"#utility.yul\":4990:4994   */\n      0x00\n        /* \"#utility.yul\":5028:5030   */\n      0x60\n        /* \"#utility.yul\":5017:5026   */\n      dup3\n        /* \"#utility.yul\":5013:5031   */\n      add\n        /* \"#utility.yul\":5005:5031   */\n      swap1\n      pop\n        /* \"#utility.yul\":5041:5112   */\n      tag_99\n        /* \"#utility.yul\":5109:5110   */\n      0x00\n        /* \"#utility.yul\":5098:5107   */\n      dup4\n        /* \"#utility.yul\":5094:5111   */\n      add\n        /* \"#utility.yul\":5085:5091   */\n      dup7\n        /* \"#utility.yul\":5041:5112   */\n      tag_35\n      jump\t// in\n    tag_99:\n        /* \"#utility.yul\":5122:5194   */\n      tag_100\n        /* \"#utility.yul\":5190:5192   */\n      0x20\n        /* \"#utility.yul\":5179:5188   */\n      dup4\n        /* \"#utility.yul\":5175:5193   */\n      add\n        /* \"#utility.yul\":5166:5172   */\n      dup6\n        /* \"#utility.yul\":5122:5194   */\n      tag_35\n      jump\t// in\n    tag_100:\n        /* \"#utility.yul\":5204:5276   */\n      tag_101\n        /* \"#utility.yul\":5272:5274   */\n      0x40\n        /* \"#utility.yul\":5261:5270   */\n      dup4\n        /* \"#utility.yul\":5257:5275   */\n      add\n        /* \"#utility.yul\":5248:5254   */\n      dup5\n        /* \"#utility.yul\":5204:5276   */\n      tag_42\n      jump\t// in\n    tag_101:\n        /* \"#utility.yul\":4841:5283   */\n      swap5\n      swap4\n      pop\n      pop\n      pop\n      pop\n      jump\t// out\n\n    auxdata: 0xa26469706673582212207e1d58ffd2d208d635136657927a4c728c1b0d934aecce93df77a66f57f7efb564736f6c63430008120033\n}\n",
				"bytecode": {
					"linkReferences": {},
					"object": "608060405234801561001057600080fd5b50604051610649380380610649833981810160405281019061003291906100dc565b80600160006101000a81548173ffffffffffffffffffffffffffffffffffffffff021916908373ffffffffffffffffffffffffffffffffffffffff16021790555050610109565b600080fd5b600073ffffffffffffffffffffffffffffffffffffffff82169050919050565b60006100a98261007e565b9050919050565b6100b98161009e565b81146100c457600080fd5b50565b6000815190506100d6816100b0565b92915050565b6000602082840312156100f2576100f1610079565b5b6000610100848285016100c7565b91505092915050565b610531806101186000396000f3fe608060405234801561001057600080fd5b50600436106100415760003560e01c80630b086b2614610046578063d47875d014610064578063ee0fcc7514610094575b600080fd5b61004e6100b0565b60405161005b91906102c2565b60405180910390f35b61007e6004803603810190610079919061030e565b6100d6565b60405161008b9190610354565b60405180910390f35b6100ae60048036038101906100a9919061039b565b61011e565b005b600160009054906101000a900473ffffffffffffffffffffffffffffffffffffffff1681565b60008060008373ffffffffffffffffffffffffffffffffffffffff1673ffffffffffffffffffffffffffffffffffffffff168152602001908152602001600020549050919050565b600160009054906101000a900473ffffffffffffffffffffffffffffffffffffffff1673ffffffffffffffffffffffffffffffffffffffff163373ffffffffffffffffffffffffffffffffffffffff16146101ae576040517f08c379a00000000000000000000000000000000000000000000000000000000081526004016101a590610438565b60405180910390fd5b8060008111806101bf575060648111155b6101fe576040517f08c379a00000000000000000000000000000000000000000000000000000000081526004016101f5906104a4565b60405180910390fd5b816000808573ffffffffffffffffffffffffffffffffffffffff1673ffffffffffffffffffffffffffffffffffffffff168152602001908152602001600020819055507faad4bab2133657711523a439a4b13ff68e1ade233cc1f9ca07cda4cad90ad0fd338484604051610274939291906104c4565b60405180910390a1505050565b600073ffffffffffffffffffffffffffffffffffffffff82169050919050565b60006102ac82610281565b9050919050565b6102bc816102a1565b82525050565b60006020820190506102d760008301846102b3565b92915050565b600080fd5b6102eb816102a1565b81146102f657600080fd5b50565b600081359050610308816102e2565b92915050565b600060208284031215610324576103236102dd565b5b6000610332848285016102f9565b91505092915050565b6000819050919050565b61034e8161033b565b82525050565b60006020820190506103696000830184610345565b92915050565b6103788161033b565b811461038357600080fd5b50565b6000813590506103958161036f565b92915050565b600080604083850312156103b2576103b16102dd565b5b60006103c0858286016102f9565b92505060206103d185828601610386565b9150509250929050565b600082825260208201905092915050565b7f4f6e6c7920746561636865722063616e206d6f646966792073636f7265730000600082015250565b6000610422601e836103db565b915061042d826103ec565b602082019050919050565b6000602082019050818103600083015261045181610415565b9050919050565b7f4572726f72206f662073636f7265000000000000000000000000000000000000600082015250565b600061048e600e836103db565b915061049982610458565b602082019050919050565b600060208201905081810360008301526104bd81610481565b9050919050565b60006060820190506104d960008301866102b3565b6104e660208301856102b3565b6104f36040830184610345565b94935050505056fea26469706673582212207e1d58ffd2d208d635136657927a4c728c1b0d934aecce93df77a66f57f7efb564736f6c63430008120033",
					"opcodes": "PUSH1 0x80 PUSH1 0x40 MSTORE CALLVALUE DUP1 ISZERO PUSH2 0x10 JUMPI PUSH1 0x0 DUP1 REVERT JUMPDEST POP PUSH1 0x40 MLOAD PUSH2 0x649 CODESIZE SUB DUP1 PUSH2 0x649 DUP4 CODECOPY DUP2 DUP2 ADD PUSH1 0x40 MSTORE DUP2 ADD SWAP1 PUSH2 0x32 SWAP2 SWAP1 PUSH2 0xDC JUMP JUMPDEST DUP1 PUSH1 0x1 PUSH1 0x0 PUSH2 0x100 EXP DUP2 SLOAD DUP2 PUSH20 0xFFFFFFFFFFFFFFFFFFFFFFFFFFFFFFFFFFFFFFFF MUL NOT AND SWAP1 DUP4 PUSH20 0xFFFFFFFFFFFFFFFFFFFFFFFFFFFFFFFFFFFFFFFF AND MUL OR SWAP1 SSTORE POP POP PUSH2 0x109 JUMP JUMPDEST PUSH1 0x0 DUP1 REVERT JUMPDEST PUSH1 0x0 PUSH20 0xFFFFFFFFFFFFFFFFFFFFFFFFFFFFFFFFFFFFFFFF DUP3 AND SWAP1 POP SWAP2 SWAP1 POP JUMP JUMPDEST PUSH1 0x0 PUSH2 0xA9 DUP3 PUSH2 0x7E JUMP JUMPDEST SWAP1 POP SWAP2 SWAP1 POP JUMP JUMPDEST PUSH2 0xB9 DUP2 PUSH2 0x9E JUMP JUMPDEST DUP2 EQ PUSH2 0xC4 JUMPI PUSH1 0x0 DUP1 REVERT JUMPDEST POP JUMP JUMPDEST PUSH1 0x0 DUP2 MLOAD SWAP1 POP PUSH2 0xD6 DUP2 PUSH2 0xB0 JUMP JUMPDEST SWAP3 SWAP2 POP POP JUMP JUMPDEST PUSH1 0x0 PUSH1 0x20 DUP3 DUP5 SUB SLT ISZERO PUSH2 0xF2 JUMPI PUSH2 0xF1 PUSH2 0x79 JUMP JUMPDEST JUMPDEST PUSH1 0x0 PUSH2 0x100 DUP5 DUP3 DUP6 ADD PUSH2 0xC7 JUMP JUMPDEST SWAP2 POP POP SWAP3 SWAP2 POP POP JUMP JUMPDEST PUSH2 0x531 DUP1 PUSH2 0x118 PUSH1 0x0 CODECOPY PUSH1 0x0 RETURN INVALID PUSH1 0x80 PUSH1 0x40 MSTORE CALLVALUE DUP1 ISZERO PUSH2 0x10 JUMPI PUSH1 0x0 DUP1 REVERT JUMPDEST POP PUSH1 0x4 CALLDATASIZE LT PUSH2 0x41 JUMPI PUSH1 0x0 CALLDATALOAD PUSH1 0xE0 SHR DUP1 PUSH4 0xB086B26 EQ PUSH2 0x46 JUMPI DUP1 PUSH4 0xD47875D0 EQ PUSH2 0x64 JUMPI DUP1 PUSH4 0xEE0FCC75 EQ PUSH2 0x94 JUMPI JUMPDEST PUSH1 0x0 DUP1 REVERT JUMPDEST PUSH2 0x4E PUSH2 0xB0 JUMP JUMPDEST PUSH1 0x40 MLOAD PUSH2 0x5B SWAP2 SWAP1 PUSH2 0x2C2 JUMP JUMPDEST PUSH1 0x40 MLOAD DUP1 SWAP2 SUB SWAP1 RETURN JUMPDEST PUSH2 0x7E PUSH1 0x4 DUP1 CALLDATASIZE SUB DUP2 ADD SWAP1 PUSH2 0x79 SWAP2 SWAP1 PUSH2 0x30E JUMP JUMPDEST PUSH2 0xD6 JUMP JUMPDEST PUSH1 0x40 MLOAD PUSH2 0x8B SWAP2 SWAP1 PUSH2 0x354 JUMP JUMPDEST PUSH1 0x40 MLOAD DUP1 SWAP2 SUB SWAP1 RETURN JUMPDEST PUSH2 0xAE PUSH1 0x4 DUP1 CALLDATASIZE SUB DUP2 ADD SWAP1 PUSH2 0xA9 SWAP2 SWAP1 PUSH2 0x39B JUMP JUMPDEST PUSH2 0x11E JUMP JUMPDEST STOP JUMPDEST PUSH1 0x1 PUSH1 0x0 SWAP1 SLOAD SWAP1 PUSH2 0x100 EXP SWAP1 DIV PUSH20 0xFFFFFFFFFFFFFFFFFFFFFFFFFFFFFFFFFFFFFFFF AND DUP2 JUMP JUMPDEST PUSH1 0x0 DUP1 PUSH1 0x0 DUP4 PUSH20 0xFFFFFFFFFFFFFFFFFFFFFFFFFFFFFFFFFFFFFFFF AND PUSH20 0xFFFFFFFFFFFFFFFFFFFFFFFFFFFFFFFFFFFFFFFF AND DUP2 MSTORE PUSH1 0x20 ADD SWAP1 DUP2 MSTORE PUSH1 0x20 ADD PUSH1 0x0 KECCAK256 SLOAD SWAP1 POP SWAP2 SWAP1 POP JUMP JUMPDEST PUSH1 0x1 PUSH1 0x0 SWAP1 SLOAD SWAP1 PUSH2 0x100 EXP SWAP1 DIV PUSH20 0xFFFFFFFFFFFFFFFFFFFFFFFFFFFFFFFFFFFFFFFF AND PUSH20 0xFFFFFFFFFFFFFFFFFFFFFFFFFFFFFFFFFFFFFFFF AND CALLER PUSH20 0xFFFFFFFFFFFFFFFFFFFFFFFFFFFFFFFFFFFFFFFF AND EQ PUSH2 0x1AE JUMPI PUSH1 0x40 MLOAD PUSH32 0x8C379A000000000000000000000000000000000000000000000000000000000 DUP2 MSTORE PUSH1 0x4 ADD PUSH2 0x1A5 SWAP1 PUSH2 0x438 JUMP JUMPDEST PUSH1 0x40 MLOAD DUP1 SWAP2 SUB SWAP1 REVERT JUMPDEST DUP1 PUSH1 0x0 DUP2 GT DUP1 PUSH2 0x1BF JUMPI POP PUSH1 0x64 DUP2 GT ISZERO JUMPDEST PUSH2 0x1FE JUMPI PUSH1 0x40 MLOAD PUSH32 0x8C379A000000000000000000000000000000000000000000000000000000000 DUP2 MSTORE PUSH1 0x4 ADD PUSH2 0x1F5 SWAP1 PUSH2 0x4A4 JUMP JUMPDEST PUSH1 0x40 MLOAD DUP1 SWAP2 SUB SWAP1 REVERT JUMPDEST DUP2 PUSH1 0x0 DUP1 DUP6 PUSH20 0xFFFFFFFFFFFFFFFFFFFFFFFFFFFFFFFFFFFFFFFF AND PUSH20 0xFFFFFFFFFFFFFFFFFFFFFFFFFFFFFFFFFFFFFFFF AND DUP2 MSTORE PUSH1 0x20 ADD SWAP1 DUP2 MSTORE PUSH1 0x20 ADD PUSH1 0x0 KECCAK256 DUP2 SWAP1 SSTORE POP PUSH32 0xAAD4BAB2133657711523A439A4B13FF68E1ADE233CC1F9CA07CDA4CAD90AD0FD CALLER DUP5 DUP5 PUSH1 0x40 MLOAD PUSH2 0x274 SWAP4 SWAP3 SWAP2 SWAP1 PUSH2 0x4C4 JUMP JUMPDEST PUSH1 0x40 MLOAD DUP1 SWAP2 SUB SWAP1 LOG1 POP POP POP JUMP JUMPDEST PUSH1 0x0 PUSH20 0xFFFFFFFFFFFFFFFFFFFFFFFFFFFFFFFFFFFFFFFF DUP3 AND SWAP1 POP SWAP2 SWAP1 POP JUMP JUMPDEST PUSH1 0x0 PUSH2 0x2AC DUP3 PUSH2 0x281 JUMP JUMPDEST SWAP1 POP SWAP2 SWAP1 POP JUMP JUMPDEST PUSH2 0x2BC DUP2 PUSH2 0x2A1 JUMP JUMPDEST DUP3 MSTORE POP POP JUMP JUMPDEST PUSH1 0x0 PUSH1 0x20 DUP3 ADD SWAP1 POP PUSH2 0x2D7 PUSH1 0x0 DUP4 ADD DUP5 PUSH2 0x2B3 JUMP JUMPDEST SWAP3 SWAP2 POP POP JUMP JUMPDEST PUSH1 0x0 DUP1 REVERT JUMPDEST PUSH2 0x2EB DUP2 PUSH2 0x2A1 JUMP JUMPDEST DUP2 EQ PUSH2 0x2F6 JUMPI PUSH1 0x0 DUP1 REVERT JUMPDEST POP JUMP JUMPDEST PUSH1 0x0 DUP2 CALLDATALOAD SWAP1 POP PUSH2 0x308 DUP2 PUSH2 0x2E2 JUMP JUMPDEST SWAP3 SWAP2 POP POP JUMP JUMPDEST PUSH1 0x0 PUSH1 0x20 DUP3 DUP5 SUB SLT ISZERO PUSH2 0x324 JUMPI PUSH2 0x323 PUSH2 0x2DD JUMP JUMPDEST JUMPDEST PUSH1 0x0 PUSH2 0x332 DUP5 DUP3 DUP6 ADD PUSH2 0x2F9 JUMP JUMPDEST SWAP2 POP POP SWAP3 SWAP2 POP POP JUMP JUMPDEST PUSH1 0x0 DUP2 SWAP1 POP SWAP2 SWAP1 POP JUMP JUMPDEST PUSH2 0x34E DUP2 PUSH2 0x33B JUMP JUMPDEST DUP3 MSTORE POP POP JUMP JUMPDEST PUSH1 0x0 PUSH1 0x20 DUP3 ADD SWAP1 POP PUSH2 0x369 PUSH1 0x0 DUP4 ADD DUP5 PUSH2 0x345 JUMP JUMPDEST SWAP3 SWAP2 POP POP JUMP JUMPDEST PUSH2 0x378 DUP2 PUSH2 0x33B JUMP JUMPDEST DUP2 EQ PUSH2 0x383 JUMPI PUSH1 0x0 DUP1 REVERT JUMPDEST POP JUMP JUMPDEST PUSH1 0x0 DUP2 CALLDATALOAD SWAP1 POP PUSH2 0x395 DUP2 PUSH2 0x36F JUMP JUMPDEST SWAP3 SWAP2 POP POP JUMP JUMPDEST PUSH1 0x0 DUP1 PUSH1 0x40 DUP4 DUP6 SUB SLT ISZERO PUSH2 0x3B2 JUMPI PUSH2 0x3B1 PUSH2 0x2DD JUMP JUMPDEST JUMPDEST PUSH1 0x0 PUSH2 0x3C0 DUP6 DUP3 DUP7 ADD PUSH2 0x2F9 JUMP JUMPDEST SWAP3 POP POP PUSH1 0x20 PUSH2 0x3D1 DUP6 DUP3 DUP7 ADD PUSH2 0x386 JUMP JUMPDEST SWAP2 POP POP SWAP3 POP SWAP3 SWAP1 POP JUMP JUMPDEST PUSH1 0x0 DUP3 DUP3 MSTORE PUSH1 0x20 DUP3 ADD SWAP1 POP SWAP3 SWAP2 POP POP JUMP JUMPDEST PUSH32 0x4F6E6C7920746561636865722063616E206D6F646966792073636F7265730000 PUSH1 0x0 DUP3 ADD MSTORE POP JUMP JUMPDEST PUSH1 0x0 PUSH2 0x422 PUSH1 0x1E DUP4 PUSH2 0x3DB JUMP JUMPDEST SWAP2 POP PUSH2 0x42D DUP3 PUSH2 0x3EC JUMP JUMPDEST PUSH1 0x20 DUP3 ADD SWAP1 POP SWAP2 SWAP1 POP JUMP JUMPDEST PUSH1 0x0 PUSH1 0x20 DUP3 ADD SWAP1 POP DUP2 DUP2 SUB PUSH1 0x0 DUP4 ADD MSTORE PUSH2 0x451 DUP2 PUSH2 0x415 JUMP JUMPDEST SWAP1 POP SWAP2 SWAP1 POP JUMP JUMPDEST PUSH32 0x4572726F72206F662073636F7265000000000000000000000000000000000000 PUSH1 0x0 DUP3 ADD MSTORE POP JUMP JUMPDEST PUSH1 0x0 PUSH2 0x48E PUSH1 0xE DUP4 PUSH2 0x3DB JUMP JUMPDEST SWAP2 POP PUSH2 0x499 DUP3 PUSH2 0x458 JUMP JUMPDEST PUSH1 0x20 DUP3 ADD SWAP1 POP SWAP2 SWAP1 POP JUMP JUMPDEST PUSH1 0x0 PUSH1 0x20 DUP3 ADD SWAP1 POP DUP2 DUP2 SUB PUSH1 0x0 DUP4 ADD MSTORE PUSH2 0x4BD DUP2 PUSH2 0x481 JUMP JUMPDEST SWAP1 POP SWAP2 SWAP1 POP JUMP JUMPDEST PUSH1 0x0 PUSH1 0x60 DUP3 ADD SWAP1 POP PUSH2 0x4D9 PUSH1 0x0 DUP4 ADD DUP7 PUSH2 0x2B3 JUMP JUMPDEST PUSH2 0x4E6 PUSH1 0x20 DUP4 ADD DUP6 PUSH2 0x2B3 JUMP JUMPDEST PUSH2 0x4F3 PUSH1 0x40 DUP4 ADD DUP5 PUSH2 0x345 JUMP JUMPDEST SWAP5 SWAP4 POP POP POP POP JUMP INVALID LOG2 PUSH5 0x6970667358 0x22 SLT KECCAK256 PUSH31 0x1D58FFD2D208D635136657927A4C728C1B0D934AECCE93DF77A66F57F7EFB5 PUSH5 0x736F6C6343 STOP ADDMOD SLT STOP CALLER "
				},
				"gasEstimates": {
					"creation": {
						"codeDepositCost": "265800",
						"executionCost": "infinite",
						"totalCost": "infinite"
					},
					"external": {
						"getScore(address)": "2841",
						"owenr()": "2492",
						"setScore(address,uint256)": "infinite"
					}
				},
				"methodIdentifiers": {
					"getScore(address)": "d47875d0",
					"owenr()": "0b086b26",
					"setScore(address,uint256)": "ee0fcc75"
				}
			},
			"storageLayout": {
				"storage": [
					{
						"astId": 25,
						"contract": "week2_2/Students.sol:Students",
						"label": "studentScore",
						"offset": 0,
						"slot": "0",
						"type": "t_mapping(t_address,t_uint256)"
					},
					{
						"astId": 27,
						"contract": "week2_2/Students.sol:Students",
						"label": "owenr",
						"offset": 0,
						"slot": "1",
						"type": "t_address"
					}
				],
				"types": {
					"t_address": {
						"encoding": "inplace",
						"label": "address",
						"numberOfBytes": "20"
					},
					"t_mapping(t_address,t_uint256)": {
						"encoding": "mapping",
						"key": "t_address",
						"label": "mapping(address => uint256)",
						"numberOfBytes": "32",
						"value": "t_uint256"
					},
					"t_uint256": {
						"encoding": "inplace",
						"label": "uint256",
						"numberOfBytes": "32"
					}
				}
			},
			"userdoc": {
				"kind": "user",
				"methods": {},
				"version": 1
			}
		}
	}
}